:1000000001308A003D2900000A108A100A11820777
:1000100028340C34013406346537693BE931693BD7
:10002000EF35EB34000020102010201D2A10201086
:10003000201020002C3084008313000803192E2880
:100040000130F800F701F70B2328F80B22284A307B
:10005000F700F70B29282C28800B20280800330EE6
:10006000F039F7000F300805770488000000081405
:100070003928081008000808F700080E0F39F800A2
:1000800008008316081088100811831288100F309A
:1000900083160805F038880083120815000008143C
:1000A00000003B207808B30008100000081400008E
:1000B0003B207808B20008100F308316080588002E
:1000C0008312330EF700F030F70577083204F8009A
:1000D0007808B200B21B4728301C881030188814EA
:1000E0000000081100000810310EB2000F30B205F8
:1000F0003208B3002F2031080F39B200B3002F208F
:1001000008000F30831608058800081088100811B1
:1001100083128810081108100F30AC001A2001302B
:10012000A7002708033C031C9D280330B3002F20A1
:100130000530AC001A20A70A91280230B3002F2006
:100140000530AC001A20A7012708033C031CB12886
:1001500027080420A800B0012808B1004120A70A00
:10016000A4288A110A1275292D0BB728BA28403005
:10017000AE00BB28AE0101302C02AE072E0880383D
:10018000AF00B0012F08B100412008002B08073A4A
:100190000319D4280B3A0319D928063A0319E12880
:1001A000023A0319E728EC280130AC00AD00B42076
:1001B000F128B0010130B10041200230AC001A201A
:1001C000F1280130AC000230AD00B420F128B001BC
:1001D0001030B1004120F1280130B0002B08B100EF
:1001E000412008000B08A7008B13831603178C17F8
:1001F0000C140000000083120C087F390319392900
:100200000313A80003170D080313A90003170F0811
:100210000313AA002808AB00C620290803178D0085
:1002200003132A0803178F0083168C170C14000081
:10023000000083120C0D0E0D7F39031939290313A9
:10024000A80003170D080313A90003170F080313D1
:10025000AA002808AB00C620290803178D00031345
:100260002A0803178F008D0A03198F0A0313F52834
:1002700003170313A71B8B170800FF30A600831674
:100280001F149F141F159F1107309C0083131F30EC
:100290008305091283129412A6122608831687007A
:1002A000831226162608831687008312A6112608B5
:1002B0008316870001308312940000308316940067
:1002C00083129001F80092000030831692001F14F0
:1002D0009F141F159F1183121F10F03097059D0565
:1002E00000308316860083128128B0010D30B100E2
:1002F00041200C3003178D0000308F000313F220D3
:100300000430A700FA30AC001A20A70B8229013074
:10031000AC000230AD00B420133003178D00003064
:100320008F000313F2200430A700FA30AC001A202B
:10033000A70B95290130AC00AD00B42075296300EE
:02400E00393F38
:00000001FF
;PIC16F877A
;CRC=F7CA  CREATED="24-Dec-18 13:39"
