:100000000C308A00652C00000A108A100A11820741
:1000100028340C34013406340C10A029E13074105B
:10002000C13C61396910201020102000D330613AA2
:10003000201DA0123232201020102010000025199F
:1000400064102010201020102000C430EB34EB305E
:10005000201DA0123232201020102010201020006D
:1000600025196410201020102010201020000C10E2
:10007000203A61396934A020F930F2342010201080
:100080002010201020100001C73A6E103A102519D8
:100090006410201020102010201000012519641079
:1000A000201020102010201020102000C13C201D06
:1000B000A01232322010201020102010201020100A
:1000C0002000251964102010201020102000D934A1
:1000D0006C103A10321825196410201020102000DE
:1000E00032182519641020102000E73A6E10613292
:1000F00069103A10502D5410201020100001502D7E
:10010000541020102000D3204C1020102000432930
:10011000531020102000D022D22920102000C32A02
:100120004D1020102000432A531020102000D02012
:100130005A10201020008C2161366139A029E1304D
:100140007410C13C61396900D330613A201DA0129E
:1001500032322010201020100001251964102010C8
:10016000201020100001C430EB34EB30201DA01211
:1001700032322010201020102010201020002519CD
:10018000641020102010201020000C152A152010BB
:1001900041264129CD1020102A152A000C10A02933
:1001A000E1307410C13C613969000C10202A6139BA
:1001B0006934A020F930F23400010C10A020EC309A
:1001C000F236A020F930F23400004A308400831364
:1001D00000080319F9280130F800F701F70BEE28A1
:1001E000F80BED284A30F700F70BF428F728800BBE
:1001F000EB2808005118FE288811FF28881583165F
:1002000088118312D11806290812072908168316A7
:100210000812831251190E2988120F298816831685
:1002200088128312D1191629081317290817831663
:100230000813000083120815831608111F29831262
:1002400008118316081183120800D201831688153D
:100250000030831288190130D2048316081600304A
:100260008312081A0130F7000310F70D7708D20443
:100270008316881600308312881A0130F700F70DB4
:10028000F70DFC30F7057708D20483160817003005
:100290008312081B0130F700F70DF70DF70DF8304A
:1002A000F7057708D2045208F800080083160811F1
:1002B0000810881083120810831608108815081675
:1002C000881608178312881483168810000083127A
:1002D0000815831608110000831225217808D10023
:1002E00008118316081100008312081583160811DF
:1002F0000000831225217808D00008118316081108
:1003000088110812881208138312510EF700F0307A
:10031000F70577085004F8007808D000D01F92291C
:1003200083165E29CE08031D972908109829081402
:1003300083160810000083128810831688100000AE
:10034000831208118316081183124F0ED0000F304C
:10035000D0055008D100FA204F080F39D000D10045
:10036000FA20080083168811081288120813081151
:100370000810881083120810831608108312881042
:100380008316881083120811831608110F30831208
:10039000CA00E5200130BC003C08033C031CD829FE
:1003A0000330D100FA200530CA00E520BC0ACC2970
:1003B0000230D100FA200530CA00E520BC013C081B
:1003C000033C031CEC293C080420BD00CE013D0881
:1003D000CF005621BC0ADF290800C7014708073CA7
:1003E000031C042A0310C60C0318F8298611F929E6
:1003F000861583168611861083128614831686103E
:1004000083128610C70AEE2908008316061183128C
:1004100006154408C600ED214508C600ED218316E7
:1004200006118312061108008316061183120615A1
:100430004008C600ED218316861500008312C10115
:100440004108073C031C392A831686158312861936
:100450002B2A03102C2A0314C20C83168610831235
:100460008614322A8316861083128610372AC10A10
:10047000202A83160611831206114208F80008008C
:100480008316061183120611452A831686108312DD
:1004900086108E30C400C50105229030C400A430FF
:1004A000C50005228130C00014227808BC003C0839
:1004B000803903195F2A8030C400C50105228A15DE
:1004C0000A12B12C4708F801460203186A2A4608A6
:1004D000F700762AF7010830C800C60DF70D470867
:1004E00077020318F700F80DC80B6D2A0800F70112
:1004F000F801460803104718F707F70CF80CC7185F
:10050000F707F70CF80C4719F707F70CF80CC719A1
:10051000F707F70CF80C471AF707F70CF80CC71A8F
:10052000F707F70CF80C471BF707F70CF80CC71B7D
:10053000F707F70CF80C08004308C6000A30C7009C
:1005400062227808C4004408C6000A30C700772237
:1005500078084302C500440EF700F030F70577082D
:100560004504F80008003D08C3009C227808C30039
:100570008630C4007808C50005223E08C3009C22CE
:100580007808C3008830C4007808C50005223F08F9
:10059000C3009C227808C3008C30C4007808C500D2
:1005A00005224008C3009C227808C3008A30C4009A
:1005B0007808C50005224108C3009C227808C300C2
:1005C0008430C4007808C50005224208C3009C227C
:1005D0007808C3008230C4007808C5000522C30132
:1005E0009C227808C3008030C4007808C50005222A
:1005F00008004A080319692BD2004E080319692B19
:10060000D20703180A2B7F30D202031C692B03196F
:10061000692B0E2B8130D2070318692B5208F70083
:10062000F801F901FA014B08D600D6174C08D5009D
:100630004D08D4001830D200D301541C372B510878
:10064000FA07031C292BF90A031D292BF80A0319A1
:10065000D3175008F907031C302BF80A0319D317D6
:100660004F08CC00CC174C08F8070318D317D30D4C
:10067000F80CF90CFA0CD60CD50CD40C0310D20BD8
:100680001C2B0130F7070318692BF81B4E2BD60DD6
:10069000FA0DF90DF80DF7030319692BD61F5F2B1F
:1006A000FA0A031D5F2BF90A031D5F2BF80A031DCD
:1006B0005F2BF80CF90CFA0CF70A0319692B4B089D
:1006C000D3004F08D306D31F672BF8176D2BF813F1
:1006D0006D2BF701F801F901FA0108004108C20089
:1006E000420EF7000F30F7057708C400C6000A3045
:1006F000C70077227808C100420EF700F030F705F6
:100700007708F70E0F30F7057708C1074108F800A2
:1007100008004B0B8C2B8F2B4030CC00902BCC0146
:1007200001304A02CC074C088038CD00CE014D087C
:10073000CF00562108004908073A0319A92B0B3AA4
:100740000319AE2B063A0319B62B023A0319BC2B38
:10075000C12B0130CA00CB008923C62BCE0101304A
:10076000CF0056210230CA00E520C62B0130CA0056
:100770000230CB008923C62BCE011030CF0056218A
:10078000C62B0130CE004908CF005621080020308A
:100790003D1E3030BE003C08F700BC1FD72BF709C8
:1007A000F70A7708BC002D30BE00BD173D143C0889
:1007B000C6006430C70062227708BC00303078077A
:1007C000BF003C08C6000A30C700622230307707FD
:1007D000C10030307807C0003E08F70030303F02DB
:1007E0000319F62BBD14BD1B3D150A2C3D190A2C0F
:1007F0003E08BF00BD18012C303040020319042C04
:100800003D14BD1BBD140A2C031D3D14031D0A2CF1
:100810003F08C0003D19112CBD18142C3D18172C91
:100820001A2C3E08C9009B233F08C9009B2340089F
:10083000C9009B234108C9009B2308008318232C6F
:10084000513084008313F701F801F901FA01D10155
:10085000D201D301D40150084F044E044D040319B2
:10086000612C2030D5000310C90DCA0DCB0DCC0D65
:10087000D10DD20DD30DD40D50085402031D4A2CB6
:100880004F085302031D4A2C4E085202031D4A2CE6
:100890004D085102031C5B2C4D08D1024E08031C6D
:1008A0004E0FD2024F08031C4F0FD3025008031CF7
:1008B000500FD4020314F70DF80DF90DFA0DD50BF6
:1008C000332C51088000840A52088000840A53089F
:1008D0008000840A5408800008000408C100400811
:1008E000C30003198C2C3F08CD003E08CC003D0806
:1008F000CB003C08CA00D101D0012030CF008230AB
:10090000CE00F9227A08BF007908BE007808BD0041
:100910007708BC00C30B732C3F08CC003E08CB000B
:100920003D08CA003C08C9004908B63CC900FA01A4
:100930004A08CD00CA170310CA0CCB0CCC0CFA0C19
:10094000F90CF80CF70CC90B9B2CCD1FB22CF70936
:10095000F809F909FA09F70A0319F80A0319F90A53
:100960000319FA0A7A08BF007908BE007808BD00AA
:100970007708BC00BF1FC92CC103C116BC09BD0943
:10098000BE09BF09BC0A0319BD0A0319BE0A03192F
:10099000BF0A3B30C8009A30C700CA30C600C50144
:1009A0000A30C30040080319C10A83143C30840094
:1009B00083133F08CC003E08CB003D08CA003C082A
:1009C000C9004808D0004708CF004608CE004508B7
:1009D000CD001E247808F708031D012D400A4302AC
:1009E0000319012D41080319032D0F39430203197F
:1009F000FB2C0318332DC11B332D411B032D20303D
:100A00002F2D2030C105C11E112DC1124008031D1C
:100A1000C1037708C1002D30C9009B234108F700AE
:100A2000C10140084302031D1F2D7708C1002E306D
:100A3000C9009B234108F7002030C1050030303049
:100A4000C11E2F2DC1124008031DC1037708C1002C
:100A50002D30C9009B234108F700C1013030F70752
:100A60007708C9009B2383104808CC004708CB00B7
:100A70004608CA004508C900D001CF01CE010A309E
:100A8000CD001E247A08C8007908C7007808C6007F
:100A90007708C500C30BD52C8A110A12E42E0B0867
:100AA000BC008B13831603178C170C140000000076
:100AB00083120C087F390319962D0313BD00031709
:100AC0000D080313BE0003170F080313BF003D08F2
:100AD000C9009B233E0803178D0003133F0803172B
:100AE0008F0083168C170C140000000083120C0D6D
:100AF0000E0D7F390319962D0313BD0003170D0842
:100B00000313BE0003170F080313BF003D08C900FD
:100B10009B233E0803178D0003133F0803178F0024
:100B20008D0A03198F0A0313522D03170313BC1BDD
:100B30008B1708003B143B088316870083120718A5
:100B40003A2F1F151F19A22D83161E088312BC00F1
:100B50001E08BD003D08C7003C08C6008E30F700E7
:100B60004708F8004608F900FA01F808031DC22DED
:100B70007908F800F9010830F702F808031DC22DC2
:100B8000F701CA2D0310F81BC92DF90DF80DF70355
:100B9000C22DF8137A08CD007908CC007808CB0074
:100BA0007708CA000A30D1002830D0002030CF00AA
:100BB0007730CE00F9227A08C9007908C800780891
:100BC000C7007708C6007A08CD007908CC007808FD
:100BD000CB007708CA00D101D0014830CF00853062
:100BE000CE00F9227A08C1007908C0007808BF0059
:100BF0007708BE002030F700F70BFC2DFF2D00001A
:100C00003E08F7003F08F8004008F9004108FA00E4
:100C10007A08A9007908A8007808A7007708A60034
:100C20008530C00014227808BC00C1006E2378080B
:100C3000AF008330C00014227808BC00C1006E23CE
:100C40007808B1008130C00014227808BC00C100CF
:100C50006E237808B0008730C00014227808BC00EA
:100C6000C1006E237808AB008930C00014227808D8
:100C7000BC00C1006E237808AC008D30C000142287
:100C80007808BC00C1006E237808AD008B30C0002E
:100C900014227808BC00C1006E237808AE000C3026
:100CA000C9009B232B08BC000130BD00C7232F3097
:100CB000C9009B232C08BC000130BD00C7232F3086
:100CC000C9009B233230C9009B233030C9009B23CD
:100CD0002D08BC000130BD00C7232030C9009B2374
:100CE00001302E02F93E0318BC2E073E3D2F503036
:100CF000C9009B234130C9009B235A30C9009B2364
:100D0000BC2E5030C9009B235A30C9009B2354305D
:100D1000C9009B23BC2E5330C9009B234130C9001E
:100D20009B234C30C9009B23BC2E4330C9009B231E
:100D30005230C9009B235330C9009B23BC2E503036
:100D4000C9009B234530C9009B235230C9009B2317
:100D5000BC2E4330C9009B235530C9009B234D3026
:100D6000C9009B23BC2E4330C9009B235430C900CB
:100D70009B235330C9009B230A30C9009B232F08B3
:100D8000BC000130BD00C7233A30C9009B233108A5
:100D9000BC000130BD00C7233A30C9009B23300896
:100DA000BC000130BD00C7232030C9009B230230A6
:100DB00084002908BF002808BE002708BD002608B7
:100DC000BC000130C0006D2C2730C9009B2343308C
:100DD000C9009B239630CA00E52033082F02031D6B
:100DE000392F34083102031D392FC53003178D0008
:100DF00000308F0003134F250230BC009630CA002C
:100E0000E520BC0BFE2E83168613831286173B1437
:100E10003B0883168700831207181C2FBB143B085E
:100E200083168700831287181C2F3B153B088316F7
:100E300087008312071D382F3B143B088316870059
:100E4000831207181C2FBB143B08831687008312DC
:100E50008718232F3B153B08831687008312071939
:100E60002A2F0230B4028316861383128613392F79
:100E7000ED2E9A2D8A150A12C32C0A148A140A150B
:100E80008207772E812E8B2E952E9F2EA92EB32E84
:100E90000B08BD008B13831603178C170C1400006E
:100EA000000003187A2F83120C087F390313BE0049
:100EB00003170D080313BF0003170F080313C00027
:100EC0003E08C9009B233F0803178D000313400809
:100ED00003178F0083168C170C1400000000831278
:100EE0000313BC0B742F772F831603177A2F992FB8
:100EF0008316031783120C0D0E0D7F390313BE00EA
:100F000003170D080313BF0003170F080313C000D6
:100F10003E08C9009B233F0803178D0003134008B8
:100F200003178F008D0A03198F0A03100313BC0BDC
:100F30004B2FBD1B8B17080020303D1E3030BE00EC
:100F40003C08F700BC1FAC2FF709F70A7708BC0074
:100F50002D30BE00BD173D143C08C6006430C700EC
:100F600062227708BC0030307807BF003C08C6001A
:100F70000A30C700622230307707C100303078076E
:100F8000C0003E08F70030303F020319CB2FBD14DC
:100F9000BD1B3D15DF2F3E08BF002030BE003030A6
:100FA00040020319D72F3D14BD1BBD14DF2F031DB5
:100FB0003D14031DDF2F3F08C0002030BF003D1946
:100FC000E62FBD18E92F3D18EC2FEF2F3E08C90082
:100FD0009B233F08C9009B234008C9009B2341086D
:060FE000C9009B2308007C
:10100000AF01B1010C3003178D0000308F008A1141
:1010100003134F258A150130CA000230CB008A1114
:1010200089238A15163003178D0000308F000310B6
:1010300007300313BC008A1148278A152F08BC000B
:101040001130BD008A119C278A151B3003178D00B3
:1010500000308F00031006300313BC008A114827AC
:101060008A15B201B208031D8828BB143B088316F9
:1010700087008312871C6528AF0A2F08173C031CC2
:10108000AF010830CA000230CB008A1189238A15CB
:101090002F08BC001130BD008A119C278A15203012
:1010A00003178D0000308F00031408300313BC00B9
:1010B0008A1148278A150230BC009630CA008A116E
:1010C000E5208A15BC0B5D2835282F08B9003B1494
:1010D0003B08831687008312071C78283B143B08C3
:1010E00083168700831207186E280130B200882803
:1010F0003B153B08831687008312071D87283B1585
:101100003B0883168700831207197F280429322899
:101110000130CA000230CB008A1189238A1525309C
:1011200003178D0000308F00031009300313BC003B
:101130008A1148278A153108BC001130BD008A1178
:101140009C278A152B3003178D0000308F00031069
:1011500009300313BC008A1148278A15320B032972
:10116000BB143B08831687008312871CE028B10A52
:1011700031083B3C031CB1010A30CA000230CB00ED
:101180008A1189238A153108BC001130BD008A11EB
:101190009C278A15313003178D0000308F0003140F
:1011A0000A300313BC008A1148278A150230BC009C
:1011B0009630CA008A11E5208A15BC0BD828B028C1
:1011C0003108BA003B143B08831687008312071CC2
:1011D000F2283B143B088316870083120718E9287E
:1011E000B2010B283B153B08831687008312071DAD
:1011F00002293B153B088316870083120719F9283B
:10120000B2010429AE2832282B08BD002C08BE00EC
:101210002D08BF002E08C0002F08C1003108C200F1
:101220008A11B3228A158A150A12FB2CB201AB016E
:10123000AC01AD010130AE00373003178D00003036
:101240008F008A1103134F258A150130CA0002301E
:10125000CB008A1189238A15443003178D00003092
:101260008F00031006300313BC008A1148278A152B
:101270002B08BC001130BD008A119C278A1548300C
:1012800003178D0000308F00031409300313BC00D6
:101290008A1148278A15B208031DA029BB143B08F0
:1012A000831687008312871C7E29AB0A2B081F3CFC
:1012B000031CAF010730CA000230CB008A1189231A
:1012C0008A152B08BC001130BD008A119C278A1595
:1012D0004F3003178D0000308F0003140C300313C0
:1012E000BC008A1148278A150230BC009630CA001B
:1012F0008A11E5208A15BC0B76294E293B143B0840
:10130000831687008312071C8F293B143B08831622
:1013100087008312071885290130B200A0293B15E8
:101320003B08831687008312071D9F293B153B0846
:1013300083168700831207199629B201432B4B2984
:101340000130CA000230CB008A1189238A15563039
:1013500003178D0000308F00031005300313BC000D
:101360008A1148278A152C08BC001130BD008A114B
:101370009C278A155A3003178D0000308F00031008
:101380000D300313BC008A1148278A15320B1C2A22
:10139000BB143B08831687008312871CFA29AC0A0A
:1013A0002C080C3C0318D6290130AC000630CA00CA
:1013B0000230CB008A1189238A152C08BC00113019
:1013C000BD008A119C278A15623003178D000030FA
:1013D0008F00031408300313BC008A1148278A15B4
:1013E0000230BC009630CA008A11E5208A15BC0B79
:1013F000F229C8293B143B08831687008312071C77
:101400000B2A3B143B088316870083120718012A16
:101410000230B2001C2A3B153B088316870083125A
:10142000071D1B2A3B153B088316870083120719EB
:10143000122AB201432BC6290130CA000230CB0068
:101440008A1189238A15673003178D0000308F00B9
:10145000031008300313BC008A1148278A152D0891
:10146000BC001130BD008A119C278A156C3003170F
:101470008D0000308F00031406300313BC008A1166
:1014800048278A153208023C031DA32ABB143B08D7
:10149000831687008312871C822AAD0A2D081E3C02
:1014A0000318542A1230AD000730CA000230CB00B6
:1014B0008A1189238A153230C9008A119B238A1523
:1014C0003030C9008A119B238A152D08BC001130C9
:1014D000BD008A119C278A15723003178D000030D9
:1014E0008F00031404300313BC008A1148278A15A7
:1014F0000230BC009630CA008A11E5208A15BC0B68
:101500007A2A462A3B143B08831687008312071C5D
:10151000932A3B143B088316870083120718892AF5
:101520000330B200A32A3B153B08831687008312C1
:10153000071DA22A3B153B08831687008312071953
:101540009A2A432B422A0130CA000230CB008A116A
:1015500089238A15753003178D0000308F008A119A
:1015600003134F258A153208033C031D422BBB147D
:101570003B08831687008312871C222BAE0A2E0895
:10158000073C0318C52A0130AE000A30CA000230F9
:10159000CB008A1189238A1501302E02F93E0318E7
:1015A000182B073E582B7F3003178D0000308F001B
:1015B0008A1103134F258A15182B833003178D00CA
:1015C00000308F008A1103134F258A15182B87309E
:1015D00003178D0000308F008A1103134F258A15E1
:1015E000182B8B3003178D0000308F008A110313E6
:1015F0004F258A15182B8F3003178D0000308F0070
:101600008A1103134F258A15182B933003178D0069
:1016100000308F008A1103134F258A15182B97303D
:1016200003178D0000308F008A1103134F258A1590
:101630000230BC009630CA008A11E5208A15BC0B26
:101640001A2BB72A3B143B08831687008312071C0A
:10165000322B3B143B088316870083120718292B73
:10166000B20125293B153B08831687008312071D0D
:10167000412B3B153B088316870083120719392B32
:10168000432BB32A4B2901302E07BC002B08BD0089
:101690002C08BE002D08BF003C08C0002F08C10068
:1016A0003108C2008A11B3228A158A150A12292D1F
:1016B0000A148A140A118207D32ADD2AE72AF12A9A
:1016C000FB2A052B0F2BB301B4019B3003178D00B0
:1016D00000308F008A1103134F258A150130CA008C
:1016E0000230CB008A1189238A15A43003178D009C
:1016F00000308F00031007300313BC008A11482705
:101700008A153308BC001130BD008A119C278A1548
:10171000A93003178D0000308F000310063003132B
:10172000BC008A1148278A15B201B208031DE92BB3
:10173000BB143B08831687008312871CC82BB30A8F
:101740003308173C031CB3010830CA000230CB0039
:101750008A1189238A153308BC001130BD008A1113
:101760009C278A15AE3003178D0000308F000314BC
:1017700007300313BC008A1148278A150230BC00C9
:101780009630CA008A11E5208A15BC0BC02B982B15
:101790003B143B08831687008312071CD92B3B148C
:1017A0003B088316870083120718CF2B0130B20045
:1017B000E92B3B153B08831687008312071DE82B96
:1017C0003B153B088316870083120719E02B622C18
:1017D000952B0130CA000230CB008A1189238A156B
:1017E000B33003178D0000308F000310093003134E
:1017F000BC008A1148278A153408BC001130BD008E
:101800008A119C278A15B93003178D0000308F008C
:1018100003100B300313BC008A1148278A15320BC2
:10182000612CBB143B08831687008312871C412C54
:10183000B40A34083B3C031CB4010A30CA0002302D
:10184000CB008A1189238A153408BC001130BD00F1
:101850008A119C278A15C03003178D0000308F0035
:10186000031408300313BC008A1148278A1502307C
:10187000BC009630CA008A11E5208A15BC0B392CB1
:10188000112C3B143B08831687008312071C512C34
:101890003B143B088316870083120718482CB201BB
:1018A0006E2B3B153B08831687008312071D602CA7
:1018B0003B153B088316870083120719582C622CAE
:1018C0000F2C952B8A150A125E2DAB01AC01AD01D0
:1018D000AE01AF01B101B301B401FF30BB0083160B
:1018E0001F149F141F159F1107309C0083131F3076
:1018F00083050912831290010030F8009200003035
:1019000083169200F030831297059D0501308316EF
:10191000850000308600FF3087008312BB008316ED
:101920001F1383121F139F1783169F1783121F14F1
:1019300083161F109F141F159F158A118312B22141
:101940008A150030F8001F08C73978049F00063058
:10195000F700F70BA92C00008A11B2218A158A1111
:10196000402A8A150B30BD000C30BE000D30BF0080
:101970000430C0001030C1002630C2008A11B322EA
:101980008A158A119A2D8A153B143B088316870005
:101990008312071C5E2D3B143B08831687008312BD
:1019A0000718CB2CCE3003178D0000308F008A1122
:1019B00003134F258A153B143B08831687008312B7
:1019C000071CEA2C3B143B08831687008312071878
:1019D000E22CFB2CBB143B08831687008312871C68
:1019E000FA2C3B143B088316870083120718F12C4E
:1019F0000028FB2CDB2C1430CA008A11E5208A1544
:101A0000D53003178D0000308F008A1103134F2546
:101A10008A153B143B08831687008312071C182D78
:101A20003B143B088316870083120718102D292DBD
:101A3000BB143B08831687008312871C282DBB1418
:101A40003B0883168700831287181F2D1629292D1E
:101A5000092D3B143B088316870083120718292D94
:101A60001430CA008A11E5208A15DD3003178D0075
:101A700000308F008A1103134F258A153B143B0851
:101A8000831687008312071C4D2D3B143B088316D9
:101A9000870083120718452D5E2DBB143B08831663
:101AA00087008312871C5D2DBB143B0883168700BB
:101AB00083128718542D632B5E2D3E2DC12C63009D
:02400E00393F38
:00000001FF
;PIC16F877A
;CRC=BEA9  CREATED="21-Jan-19 03:25"
