:1000000003308A00352B00000A108A100A1182077B
:1000100028340C34013406348A29E130741D251843
:100020003232BA123019641D2518323200002E30D7
:1000300084008313000803192B280130F800F7010E
:10004000F70B2028F80B1F284A30F700F70B26285B
:100050002928800B1D2808003518302888113128E0
:100060008815831688118312B51838280812392884
:100070000816831608128312351940288812412861
:100080008816831688128312B51948280813492840
:100090000817831608130000831208158316081129
:1000A0005128831208118316081183120800B60123
:1000B000831688150030831288190130B604831620
:1000C000081600308312081A0130F7000310F70DEC
:1000D0007708B6048316881600308312881A013018
:1000E000F700F70DF70DFC30F7057708B604831617
:1000F000081700308312081B0130F700F70DF70DC9
:10010000F70DF830F7057708B6043608F800080050
:10011000831608110810881083120810831608101F
:1001200088150816881608178312881483168810F5
:10013000000083120815831608110000831257204F
:100140007808B500081183160811000083120815FD
:10015000831608110000831257207808B400081194
:100160008316081188110812881208138312350E9D
:10017000F700F030F70577083404F8007808B40089
:10018000B41FC42883169028B208031DC92808107C
:10019000CA280814831608100000831288108316DA
:1001A0008810000083120811831608118312330E81
:1001B000B4000F30B4053408B5002C2033080F39D3
:1001C000B400B5002C20080083168811081288128C
:1001D00008130811081088108312081083160810DD
:1001E0008312881083168810831208118316081151
:1001F0000F308312AE0017200130A7002708033C00
:10020000031C0A290330B5002C200530AE0017204E
:10021000A70AFE280230B5002C200530AE001720BA
:10022000A7012708033C031C1E2927080420A80057
:10023000B2012808B3008820A70A11298A110A12DE
:10024000502BB1013108073C031C38290310B00CB6
:1002500003182C2986112D298615831686118610E0
:10026000831286148316861083128610B10A2229FF
:10027000080083160611831206152E08B0002121EE
:100280002F08B000212183160611831206110800E1
:1002900083160611831206152B08B0002121831640
:1002A000861500008312AC012C08073C031C6D2945
:1002B00083168615831286195F290310602903149B
:1002C000AD0C831686108312861466298316861059
:1002D000831286106B29AC0A5429831606118312E7
:1002E00006112D08F8000800831606118312061166
:1002F000792983168610831286108E30AE00AF01E6
:1003000039219030AE00A430AF0039218130AB00EC
:1003100048217808A70027088039031993298030DD
:10032000AE00AF0139218A110A12512B3108F801B0
:10033000300203189E293008F700AA29F701083077
:10034000B200B00DF70D310877020318F700F80D71
:10035000B20BA1290800F701F80130080310311889
:10036000F707F70CF80CB118F707F70CF80C311970
:10037000F707F70CF80CB119F707F70CF80C311A5E
:10038000F707F70CF80CB11AF707F70CF80C311B4C
:10039000F707F70CF80CB11BF707F70CF80C08007F
:1003A0002D08B0000A30B10096217808AE002E0862
:1003B000B0000A30B100AB2178082D02AF002E0E3C
:1003C000F700F030F70577082F04F8000800270839
:1003D000AD00D0217808AD008630AE007808AF00BF
:1003E00039212808AD00D0217808AD008830AE0052
:1003F0007808AF0039212908AD00D0217808AD0078
:100400008C30AE007808AF0039212A08AD00D02129
:100410007808AD008A30AE007808AF0039212B088B
:10042000AD00D0217808AD008430AE007808AF0070
:1004300039212C08AD00D0217808AD008230AE0003
:100440007808AF003921AD01D0217808AD008030A7
:10045000AE007808AF0039218A110A125D2B2C08F2
:10046000AD002D0EF7000F30F7057708AF00B00094
:100470000A30B100AB217808AC002D0EF700F03047
:10048000F7057708F70E0F30F7057708AC072C084B
:10049000F80008002F0B4D2A502A4030B000512A96
:1004A000B00101302E02B00730088038B100B2012F
:1004B0003108B300882008002D08073A03196A2A7A
:1004C0000B3A03196F2A063A0319772A023A0319DD
:1004D0007D2A822A0130AE00AF004A22872AB2016B
:1004E0000130B30088200230AE001720872A013087
:1004F000AE000230AF004A22872AB2011030B300AA
:100500008820872A0130B2002D08B3008820080017
:100510002030281E3030A9002708F700A71F982A8E
:10052000F709F70A7708A7002D30A900A8172814A3
:100530002708B0006430B10096217708A70030305A
:100540007807AA002708B0000A30B10096213030A1
:100550007707AC0030307807AB002908F70030305F
:100560002A020319B72AA814A81B2815CB2A281970
:10057000CB2A2908AA00A818C22A30302B02031956
:10058000C52A2814A81BA814CB2A031D2814031D50
:10059000CB2A2A08AB002819D22AA818D52A28184D
:1005A000D82ADB2A2908AD005C222A08AD005C228B
:1005B0002B08AD005C222C08AD005C2208000B0863
:1005C000A8008B13831603178C170C14000000006F
:1005D0000318112B83120C087F390313A90003178A
:1005E0000D080313AA0003170F080313AB00290813
:1005F000AD005C222A0803178D0003132B08031794
:100600008F0083168C170C14000000008312031354
:10061000A70B0B2B0E2B83160317112B302B8316D6
:10062000031783120C0D0E0D7F390313A900031756
:100630000D080313AA0003170F080313AB002908C2
:10064000AD005C222A0803178D0003132B08031743
:100650008F008D0A03198F0A03100313A70BE22AD8
:10066000A81B8B178A110A12192C83161F149F14AA
:100670001F159F1183131F308305091283129001E8
:100680000030F80092000030831692001F149F146F
:100690001F159F1183121F10F03097059D05E42848
:1006A00074291430A7000730A800A9000630AA005A
:1006B0001630AB003430AC00E7298530AB00482160
:1006C0007808A700AC002F227808A2008330AB0086
:1006D00048217808A700AC002F227808A1008130BB
:1006E000AB0048217808A700AC002F227808A000B2
:1006F0008730AB0048217808A700AC002F2278088B
:10070000A3008930AB0048217808A700AC002F2255
:100710007808A4008D30AB0048217808A700AC0011
:100720002F227808A5008B30AB0048217808A7005D
:10073000AC002F227808A6000C30AD005C225430AB
:10074000AD005C223A30AD005C222308A7000130E6
:10075000A80088222F30AD005C222408A7000130B9
:10076000A80088222F30AD005C223230AD005C2220
:100770003030AD005C222508A7000130A800882297
:100780002030AD005C2201302602F93E03180F2C08
:10079000073E372C5030AD005C224130AD005C226A
:1007A0005A30AD005C220F2C5030AD005C225A3024
:1007B000AD005C225430AD005C220F2C5330AD00F4
:1007C0005C224130AD005C224C30AD005C220F2C2D
:1007D0004330AD005C225230AD005C225330AD009E
:1007E0005C220F2C5030AD005C224530AD005C2205
:1007F0005230AD005C220F2C4330AD005C225530EE
:10080000AD005C224D30AD005C220F2C4330AD00BA
:100810005C225430AD005C225330AD005C220C30C1
:1008200003178D0000308F00031006300313A7005C
:10083000DF2A2208A7000130A80088223A30AD0044
:100840005C222108A7000130A80088223A30AD00C0
:100850005C222008A7000130A80088220430A700ED
:10086000FA30AE001720A70B302C5D2B63000A1066
:100870008A100A158207CA2BD42BDE2BE82BF22B09
:04088000FC2B062C1B
:02400E00393F38
:00000001FF
;PIC16F877
;CRC=BAB9  CREATED="27-Dec-18 13:11"
